:060000000200760200D3AD
:200008000000E2FBEAF2802C0000E0FBEAF08024E6B50202EBF62200E2B50202EBF22200DE
:20002800E0B50202EBF02230F6E0A88220F5D3EAC6F582228B822230F6E6A88220F5D980EE
:01004800CFE8
:0300CF00020049E3
:030049000201149D
:2000D20022C021C0E0C0F0C082C083C007C006C005C004C003C002C001C000C0D075D00045
:2000F200120894D0D0D000D001D002D003D004D005D006D007D083D082D0F0D0E0D02102FC
:20011200004C120A14120677120384120A2C755929755A17758200121595120987AE82AFD0
:2001320083900001E4F0A3F0A3F0A3F090000574D0F07407A3F0C007C006120987858208F7
:20015200858309D006D007E508C39EFAE5099FFB900001E0F50AA3E0F50BA3E0F50CA3E005
:20017200F50D7C007D00900001EA250AF0EB350BA3F0EC350CA3F0ED350DA3F0AE08AF092A
:20019200900001E0FAA3E0FBA3E0FCA3E0FDC3EA94F4EB9401EC9400ED9400404CEA240C09
:2001B200FAEB34FEFBEC34FFFCED34FFFD900001EAF0EBA3F0ECA3F0EDA3F0C007C006125C
:2001D20003B1D006D007900005E0FCA3E0FD900005E0F5F0A3E045F060A61CBCFF011D901E
:2001F2000005ECF0EDA3F0809790000775F000C007C0061206C1D006D007900007E0700F70
:20021200C007C006120863E582D006D007600A90000574D0F07407A3F090000775F000C0B1
:2002320007C0061204141204CAE582D006D0076003020148C007C006120863E582D006D0FC
:20025200076003020148900005E0F5F0A3E045F06003020148E5B020E20302014890173556
:200272001200D21209C612069912097B120A2C12155812098D1209751209811206BD901749
:20029200421200D2120987AE82AF83900001E4F0A3F0A3F0A3F090000574D0F07407A3F02D
:0302B200020148FE
:201729006C616D7020626F6F740D0A006C616D7020736C6565700D0A006C616D702077616F
:051749006B650D0A00B4
:2002B50085821B751A01758201020B5BAF828F5B755C00755D00755E0090176FE4F5F01295
:2002D500169BAC82AD83AEF0FF755B64E4F55CF55DF55E8C828D838EF0EF0215C6E50F9063
:2002F500174E93F5821202C185823A85833B758201020D921202F2758201020DD7758201AC
:20031500120E0E751A00751B00758201020B5B750E01E4F510F511F512F513F5170203097F
:20033500E4F50EF510F511F512F513F517020312E50E70012274F2250F4002050F0202F218
:20035500E50E700122E50F6002150F0202F2AE82AF83E50E7001228E108F11E4F512F51379
:200375007517640203127516327582010202B5750E00750F08E4F510F511F512F51375145D
:2003950064F515F516F51775386F753917758201120D761203357582000202B5C3E514940B
:2003B50064E515940050080514E4B514020515E5166009D516067582001202B5E517600A81
:2003D500D51707E50E6003120309E50E6030E5104511602A0512E4B512020513C3E512941F
:2003F500E8E51394034017E4F512F513151074FFB510021511E5104511700302033522ADDB
:2004150082AE83AFF0ED4E60118D028E038F048A828B838CF01217097001220DBD00010EE2
:200435008D828E838FF01217096013C3E5149464E5159400500122E4F514F5158020E4F53E
:2004550014F515C007C006C005C004C003C00212037BD002D003D004D005D006D0078A8237
:200475008B838CF0121709FCBC01158D828E838FF0121709703EE50E700302032402033595
:20049500BC0203020345BC0303020355BC04118D828E838FF0121709700690038402036389
:1904B500BC05118D828E838FF01217097006900E1002036322850E8222A6
:0F174E0001020305090F14191E28323C46505A98
:2004CE00E582FF70127418B55B04758202227452B55B3475820322BF012D7411B55B04754A
:2004EE008201227422B55B04758202227433B55B04758203227451B55B04758204227452F1
:20050E00B55B047582052275820022AF82BF02028003BF03047F0180027F008F8222E5822A
:20052E00FFC4540F90175D93F55B758200C00712158CD007740F5F90175D93F55B75820098
:20054E0002158CAE82AF838F82C007C00612052CD006D0078E8202052CAF82BF010C7559EC
:20056E006E755A17758200021595BF020C755974755A17758200021595BF030C75597D7550
:20058E005A17758200021595BF040C755984755A17758200021595BF050C75598C755A177F
:2005AE00758200021595755994755A17758200021595AF82755999755A17758200C0071251
:2005CE001595D0078F8212052C7559AA755A1775820012159585298212052C7559B2755A65
:2005EE0017758200121595852A821205677559BB755A17758200021595AF827559BE755AD6
:20060E0017758200C007121595D0078F821205677559BB755A17758200021595AF827559C4
:20062E00D0755A17758200C007121595D0078F8212052C7559DD755A177582001215958588
:20064E002B82852C831205517559E7755A17758200121595852D82852E831205517559BB9A
:20066E00755A1775820002159590000975F00012116D752200752301120987858224858350
:20068E00257526007527007528002290000975F00012118175260175270075220075230127
:2006AE00120987858224858325758200020EFD75260022AD82AE83AFF0ED4E7001228D0215
:2006CE008E038F048A828B838CF0E41216800DBD00010E8D828E838FF0E4121680F535C2D6
:2006EE00AFC007C006C005C004C003C002120987858230858331D002D003D004D005D0066C
:20070E00D007852432852533852234D2AFE5346026E530C39532F8E5319533F9C3E4987420
:20072E006C995013C2AF752200853024853125752700D2AF753501C2AF7552167553007534
:20074E00540090000975F000C007C006C005C004C003C0021214E285822FD002D003D004E7
:20076E00D005D006D007D2AF7401B52F67900016E0F8900017E0F55B8882C004C003C00200
:20078E001204CEA882900016E0F9900017E0F529882A8982C0001205C0D000D002D003D080
:2007AE0004E870030208458882C004C003C002C000120519E582D000D002D003D004600426
:2007CE0088018002790089288A828B838CF0E812168080637402B52F5E852882C007C00659
:2007EE00C005C004C003C002120519E582D002D003D004D005D006D0076036852882C007BF
:20080E00C006C005C004C003C002120607D002D003D004D005D006D0078A828B838CF0E561
:20082E00281216808D828E838FF074011216808006758200120607E53560197401B52F0195
:20084E00227402B52F0122C2AF90000975F000121181D2AF22C2AF120987AE82AF83AC24F0
:20086E00AD25AB22D2AFEB7003F58222EEC39CFEEF9DFFC3E49E746C9F920040047F0180E3
:20088E00027F008F8222120987AE82AF83E5B030E2047D0180027D00E526602A752600C07A
:2008AE0005120C11758200120C4FD0057522018D2312098785822485832575270190000945
:2008CE0075F000021181E522602CEEC39524F582EF9525F583C007C006C00512098A85827E
:2008EE004685834785234590000975F000121223D005D006D0077522018D238E248F2522D1
:20175D003031323334353637383941424344454600706F7765720062726967687465720046
:20177D0064696D6D65720074696D657231350074696D65723630006E6F6E650069722066AF
:20179D0072616D6520616464723D30780020636D643D30780020616374696F6E3D000D0ABC
:2017BD000069722072657065617420616374696F6E3D006972206E6F6E65206E3D30780097
:1317DD002066697273743D307800206C6173743D30780013
:20090E00E582FFF4FE5292EF429190FE11E0FFEE520790FE11EFF090FE31E0520690FE31D2
:20092E00EEF022E582FFF4FE52B2EF42B190FE13E0FFEE520790FE13EFF090FE33E052062B
:20094E0090FE33EEF0227582FC12090E7582F80209317582FC12090E7582FB020931120B1A
:20096E00F3758200020C4F758200020C4F758200020C56758200021560020C2A020C42433A
:20098E00BA80751800751901758201120ACB751801751901758201120ACB751802751902F9
:2009AE00758203120ACB12095490FE33E04404F090FE13E04404F022751A00751B0075820F
:2009CE0001120B5B751A01751B00758201120B5B751800751901758201120ACB7518017502
:2009EE001901758201120ACB751802751902758203120ACB12096090FE33E04404F090FE0E
:1E0A0E0013E04404F02212098D12096C120981751E00758200120E6D758200020EC4D0
:060A2C00D2AF22C2AF228E
:200A3200AF8274075FF5F005F07401800225E0D5F0FBF58222AF82BF01028005BF030A80A6
:200A5200048590822285B0822275820022AF82BF01028005BF03098004855B9022855BB0EC
:200A720022AF82BF01028005BF030A80048592822285B2822275820022AF82BF0102800553
:200A9200BF03098004855B9222855BB222AF82BF01028005BF030A80048591822285B18273
:200AB2002275820022AF82BF01028005BF03098004855B9122855BB122AF82BF0600500690
:200AD200E51824F8500122851882C007120A32AE82D0078F82C007C006120A73AD82D0060B
:200AF200D0078F82C007C006C005120A9FAC82D005D006D007E51924FC4038E51975F00343
:200B1200A4900B1773020B23020B2D020B36020B3FEEF4FB5205EB52048018EE4205EEF4DD
:200B32005204800FEEF45205EE42048006EE4205EE42048D5B8F82C007C004120A8BD00463
:200B5200D0078C5B8F82020AB7AF82BF06005006E51A24F85001228F82C007120A47AE82AC
:200B7200851A82C006120A32AD82D006D007E51B6005ED42068004EDF452068E5B8F8202FF
:200B92000A5FAF82BF06005006E51C24F85004758200228F82120A47AF82851C82C0071263
:200BB2000A32AE82D007EE5F60047F0180027F008F8222AF82BF06005006E51D24F85001C0
:200BD200228F82C007120A47AE82851D82C006120A32AD82D006D007ED6EF55B8F82020A9A
:010BF2005FA3
:200BF300C28CC2A974F055894401F589538E7F538FFE758C00758A00C28D75820022308CC0
:200C1300047F0180027F00C28C758C00758A00C28DEF6002D28C22AF8CAE8AAD8CEFB50579
:200C3300F68F05E4FFFCEE4FF582EC4DF58322AE82AF83EE2EF582EF33F58322E582700227
:0A0C5300D28C22E5827002C28C22CE
:200C5D00AF82BF01047582012275820022AF82BF01004005EF24FB5004758200221FEF2F61
:200C7D00F5822285826085836185F062AD60AE61AF62AC5F8D828E838FF0EC121680AD5BA4
:200C9D00AE5CAF5DAC5E8D828E838FF0EC021680AF82BF011690FEC8E0FF74845F4468F0C5
:200CBD0090FECCE054FCF07582002275820122AE82AF83EE4F70047582012243BA8090FE32
:200CDD00C0E054FEF08E368F3790FED0E4F0A3F0755BD3755CFEF55D8E5E8F5F0582F5F0BC
:200CFD00120C8090FED4E4F090FEDEF01582E0FF43078090FEDDEFF090FEC0E04480F075C6
:200D1D00820022AF82C007120C5DE582D00770047582012243BA808F82C007120C6AAE82C6
:200D3D00D0078EF005F07403800225E0D5F0FBFE90FEB2E0FDEEF4520590FEB2EDF08F820C
:200D5D00C007120CADE582D007600475820122E4F53AF53B8F82020D92AF82853882853905
:200D7D0083C007120CCCE582D0076004758201228F82020D20AF82C007120C5DE582D00775
:200D9D00700475820122C3E536953AE537953B500685363A85373BBF011C755BD6755CFE7C
:200DBD00755D00853A5E853B5F90FED575F000120C807582002275820122AF82C007120C59
:200DDD005DAE82D007EEFD70047582012290FEB1E0420590FEB1EDF0BF011290FECCE04447
:200DFD0001F090FEC0E04401F07582002275820122AF82C007120C5DAE82D007EEFD700476
:200E1D007582012290FEB1E0FEEDF4520690FEB1EEF0BF010990FECCE054FEF08004758268
:150E3D00012290FEB1E05455700790FEC0E054FEF075820022B5
:200E5200AF82BF020475821022BF030475822022BF04047582402275820022AF82E51E7085
:200E720003FE800CE51E60047E01800475820122EF700DC2A8C289EE24FF928875820022EA
:200E9200BF010DC2AAC28BEE24FF928A758200228F82120E52E582FE6014E51E70047582AA
:200EB2000122EEF4FE528FEE52EF7582002275820122E582FF7003D2A822BF0103D2AA2204
:200ED2008F82120E52E582FE6003EE428F22E582FF7003C2A822BF0103C2AA228F82120EED
:200EF20052E582FE6004EEF4528F22E582FF7003C28922BF0103C28B228F82120E52E5827E
:200F1200FE6004EEF452EF22E582FF30E002C289EF30E102C28BEF30E20353EFEFEF30E3CF
:0C0F32000353EFDFEF30E40353EFBF2266
:200F3E00AE82AF83C3EE955BEF955C9201400FC3E55D9EE55E9F920140047F0180027F00F1
:200F5E008F8222AE82AF83755B20755C1C755D30755E2A8E828F83020F3EAE82AF83755B5F
:200F7E0090755C01755DEE755E028E828F83020F3EAE82AF83755B10755C0E755D18755E0D
:200F9E00158E828F83020F3EAE82AF83755B08755C07755D8C755E0A8E828F83020F3EAE41
:200FBE0082AF83755B90755C01755DEE755E028E828F83020F3EAE82AF83755B46755C05D9
:200FDE00755D02755E088E828F83020F3EAD82AE83AFF074062DFDE43EFE8D828E838FF071
:200FFE00121709700B8D828E838FF0E55B02168022AD82AE83AFF08D028E038F048A828B44
:20101E00838CF0E4121680042DFAE43EFB8F048A828B838CF0E412168074022DFAE43EFB70
:20103E008F048A828B838CF0E4121680A3121680A3121680A3121680755B038D828E838F7A
:20105E00F0020FEB85823C85833D85F03E7402253CFCE4353DFAAB3E8C828A838BF0121780
:20107E0009F8A3121709F9A3121709FEA3121709FF883F89408E41A83CA93DAE3E88828934
:20109E00838EF0E412168004253CF8E4353DF9AE3E888289838EF0E4121680E540653FFE26
:2010BE00BEFF09E5416207BFFF02800F755B03853C82853D83853EF0020FEB7406253CF594
:2010DE0042E4353DF543853E448542828543838544F012170970777407253CF8E4353DFD8E
:2010FE00AF3E88828D838FF0E53F1216807408253CFDE4353DFEAF3E8D828E838FF0E541A0
:20111E001216807409253CFDE4353DFEAF3E8C828A838BF0121709F9A3121709FAA3121791
:20113E0009FBA3121709FC8D828E838FF0E9121680A3EA121680A3EB121680A3EC121680EA
:20115E008542828543838544F0740102168022AD82AE83AFF0ED4E7001228D828E838FF089
:20117E00021181AD82AE83AFF0ED4E7001228D028E038F048A828B838CF0E4121680042DEA
:20119E00FAE43EFB8F048A828B838CF0E412168074022DFAE43EFB8F048A828B838CF0E49E
:2011BE00121680A3121680A3121680A312168074062DFAE43EFB8F048A828B838CF0E412AB
:2011DE00168074072DFAE43EFB8F048A828B838CF0E412168074082DFAE43EFB8F048A8288
:2011FE008B838CF0E412168074092DFDE43EFE8D828E838FF0E4121680A3121680A31216B3
:20121E0080A302168085824885834985F04AE5484549700122AA48AB49AC4A8A828B838CC6
:20123E00F0121709F9705DE5457058854682854783C004C003C002120F61E582D002D00343
:20125E00D004603F74022548F8E43549FEAF4A88828E838FF0E4121680A3121680A312168D
:20127E0080A3121680042548FDE43549FEAF4A8D828E838FF0E41216808A828B838CF004F9
:20129E0002168022B901757401B54502800C854882854983854AF002100F8546828547832E
:2012BE00C004C003C002120F8FE582D002D003D004600B8A828B838CF0740202168085465D
:2012DE0082854783C004C003C002120FA6E582D002D003D00460198A828B838CF0E4121614
:2012FE0080755B02854882854983854AF0020FEB854882854983854AF002100FB90234E5CF
:20131E00457024854682854783C004C003C002120F78E582D002D003D004600B8A828B83F3
:20133E008CF07403021680854882854983854AF002100FB9030280030214B97401B5450203
:20135E00801B854882854983854AF0C004C003C00212100FD002D003D00402148D85468292
:20137E00854783C004C003C002120FBDE582D002D003D004602374012548FDE43549FEAF88
:20139E004A8D828E838FF0121709F9098D828E838FF0E912168002148D854682854783C0E3
:2013BE0004C003C002120FD4E582D002D003D0047003021481C002C003C00474022548F586
:2013DE004FE43549F550854A51854F828550838551F0121709F54BA3121709F54CA3121711
:2013FE0009F54DA3121709F54E74012548FAE43549FBAC4A8A828B838CF0121709F5F0058B
:20141E00F078017E0079007F00800CE828F8EE33FEE933F9EF33FFD5F0F1E54B4200E54C8D
:20143E004206E54D4201E54E4207854F828550838551F0E8121680A3EE121680A3E9121664
:20145E0080A3EF1216808A828B838CF0121709FF0F8A828B838CF0EF121680D004D003D03A
:20147E0002800C854882854983854AF002100F74012548FDE43549FEAF4A8D828E838FF069
:20149E00121709FDBD2000920240047F0480027F028A828B838CF0EF021680E5457019856F
:2014BE004682854783120F78E582600C854882854983854AF0021062854882854983854A49
:2014DE00F002100F85825585835685F057E55545567003F5822274062555FAE43556FBAC72
:2014FE00578A828B838CF0121709F5587401B55835E5524553602FA852A953AF54740725B4
:20151E0055F55BE43556F55C85575D755E06755F00888289838FF0C004C003C00212162B31
:14153E00D002D003D0048A828B838CF0E4121680855882227D
:0E1552004387010000224387020000000022B0
:20156000C28E759850538EFE438E4053890F758BF3758DFFC2AB538FFD53A23F53B2FC531B
:20158000B1FCD28EC299C29875820022855B9910990280FB22AF82E559455A700122AD5908
:2015A000AE5A8D828E83E493FC601A8C5B8F82C007C006C00512158CD005D006D0070DBDCD
:0615C00000E00E80DD22B8
:2015C600FB7A20E4FCFDFEFFE5822582F582E58333F583E5F033F5F0EB33FB4017DAE9805E
:2015E60042E5822582F582E58333F583E5F033F5F0EB33FBEC33FCED33FDEE33FEEF33FF8D
:20160600EC955BED955CEE955DEF955E4013EC955BFCED955CFDEE955DFEEF955EFF4382BE
:0516260001DABEEB2219
:0600A500E478FFF6D8FD2F
:20162B00AD82AE83AFF08D608E618F62855B63855C64855D65A85EA95F8803890418B8FF0F
:20164B000119EB4C60258563828564838565F0121709FCA38582638583648D828E838FF0B3
:15166B00EC121680A3AD82AE8380CE8560828561838562F022BC
:200083007900E94400601B7A009017F0781C75A000E493F2A308B8000205A0D9F4DAF27501
:0200A300A0FFBC
:20004C00C000A88118C0D0B6001B18B608004015B62F005010C0E0E65407B406005004E6ED
:0A006C0054F8F6D0E0D0D0D00032F6
:1B16800020F71130F6138883A88220F509F6A8837583002280FEF280F5F02269
:20169B00AAF0FBE582855BF0A4FCADF0E583855BF0A42DFDE435F0FEE582855CF0A42DFD13
:2016BB00E5F03EFEE433FFEA855BF0A42EFEE5F03FFFE583855CF0A42EFEE5F03FFFE582C8
:2016DB00855DF0A42EFEE5F03FFFEB855BF0A42FFFEA855CF0A42FFFE583855DF0A42FFF14
:0E16FB00E582855EF0A42F8EF08D838C822216
:2000AB007800E84400600A790175A000E4F309D8FC781BE84400600C7901900001E4F0A337
:0400CB00D8FCD9FA8A
:0D007600758165121725E5826003020049BF
:1C17090020F71430F6148883A88220F507E6A88375830022E280F7E49322E022EF
:0417250075820022A7
:00000001FF
