:2000E500858215858316900006020EFB1200E5AE82AF83C3E49EFEE49FFFC28CC28D8F8C4A
:200105008E8AD28C308DFDC28CC28D22C28CC2A974F055894401F589438E80538FFE758CFB
:2001250000758A00C28D75820022AE82AF83EE4F6033C374889E74139F50067C887D138034
:20014500048E048F058C828D83C007C006C005C0041200F1D004D005D006D007EEC39CFE98
:06016500EF9DFF80C9229E
:06016B00D2AF22C2AF2258
:2001710085821785831885F019E5174518700122A915E4FAFBFCE515F4F87D007E008E07AD
:200191008D068805E44201ED4202EE4203EF4204A8167D008D078806E44201ED4202EE4289
:2001B10003EF4204E516F4F87D007E008807E44201ED4202EE4203EF420485178285188387
:2001D1008519F0E9120EE0A3EA120EE0A3EB120EE0A3EC120EE074042517FDE43518FEAF5E
:2001F100198D828E838FF0E4020EE0AD82AE83AFF0ED4E7001228D828E838FF0E4120EE012
:20021100A3120EE0A3120EE0A3120EE074042DFDE43EFE8D828E838FF07480020EE0AF826E
:20023100AD83AEF0EF4D6006E515451670047582002274042FF518E43DF5198E1A851882B1
:20025100851983851AF0120F18F920E7030202EE747F59F87029AA15AB16AC178A828B8375
:200271008CF07428120EE0A37423120EE0851882851983851AF07481120EE075820122B885
:200291000129AA15AB16AC178A828B838CF074CA120EE0A37408120EE08518828519838528
:2002B1001AF07482120EE075820222B803005029AA15AB16AC178A828B838CF07432120E3F
:2002D100E0A37402120EE0851882851983851AF07483120EE07582012275820022E970368C
:2002F100AA15AB16AC178A828B838CF07428120EE0A37423120EE0851882851983851AF06F
:20031100120F18FC0C851882851983851AF0EC120EE075820122B90136AA15AB16AC178AF9
:20033100828B838CF07494120EE0A37411120EE0851882851983851AF0120F18FC0C8518C3
:2003510082851983851AF0EC120EE075820222B94300400475820022B94236AA15AB16AC9D
:20037100178A828B838CF07432120EE0A37402120EE0851882851983851AF0120F18FC0CF0
:20039100851882851983851AF0EC120EE07582012289047B00EC24FEFCEB34FFC313CC1392
:2003B100CCE920E036A915AA16AB1789828A838BF07432120EE0A37402120EE0851882850B
:2003D1001983851AF0120F18FB0B851882851983851AF0EB120EE07582012285151B85167E
:2003F1001C85171D8F828D838EF0120F18F8A3120F18FDA3120F18FEA3120F18FF8CF00538
:20041100F079017A007B007C00800CE929F9EA33FAEB33FBEC33FCD5F0F1E95200EA5205DC
:20043100EB5206EC5207E84D4E4F60067E977F0680047E327F02851B82851C83851DF0EED6
:20045100120EE0A3EF120EE0851882851983851AF0120F18FF0F851882851983851AF0EF25
:07047100120EE07582022269
:20047800AF82BF020475821022BF030475822022BF04047582402275820022AF82E508707F
:2004980003FE800CE50860047E01800475820122EF700DC2A8C289EE24FF928875820022E4
:2004B800BF010DC2AAC28BEE24FF928A758200228F82120478E582FE6014E5087004758288
:2004D8000122EEF4FE528FEE52EF7582002275820122E582FF7003D2A822BF0103D2AA22E8
:2004F8008F82120478E582FE6003EE428F22E582FF7003C2A822BF0103C2AA228F821204BF
:2005180078E582FE6004EEF4528F22E582FF7003C28922BF0103C28B228F82120478E5821F
:20053800FE6004EEF452EF22E582FF30E002C289EF30E102C28BEF30E20353EFEFEF30E3B3
:0C0558000353EFDFEF30E40353EFBF224A
:20056400AF8274075FF5F005F07401800225E0D5F0FBF58222AF82BF01028005BF030A8079
:20058400048590822285B0822275820022AF82BF01028005BF03098004851590228515B04B
:2005A40022AF82BF01028005BF030A80048592822285B2822275820022AF82BF0102800526
:2005C400BF03098004851592228515B222AF82BF01028005BF030A80048591822285B182D2
:2005E4002275820022AF82BF01028005BF03098004851591228515B122AF82BF06005006EF
:20060400E50924F8500122850982C007120564AE82D0078F82C007C0061205A5AD82D006A1
:20062400D0078F82C007C006C0051205D1AC82D005D006D007E50A24FC4038E50A75F00306
:20064400A49006497302065502065F020668020671EEF4FB5205EB52048018EE4205EEF4CF
:200664005204800FEEF45205EE42048006EE4205EE42048D158F82C007C0041205BDD0044F
:20068400D0078C158F820205E9AF82BF06005006E50B24F85001228F82C007120579AE827A
:2006A400850B82C006120564AD82D006D007E50C6005ED42068004EDF452068E158F820209
:2006C4000591AF82BF06005006E50D24F85004758200228F82120579AF82850D82C00712FA
:2006E4000564AE82D007EE5F60047F0180027F008F8222AF82BF06005006E50E24F8500175
:20070400228F82C007120579AE82850E82C006120564AD82D006D007ED6EF5158F8202056C
:010724009143
:0E0725004387010000224387020000000022EB
:20073300AF82BF01047582012275820022AF82BF01004005EF24FB5004758200221FEF2F90
:20075300F5822285821A85831B85F01CAD1AAE1BAF1CAC198D828E838FF0EC120EE0AD15AB
:20077300AE16AF17AC188D828E838FF0EC020EE0AF82BF011690FEC8E0FF74845F4468F06E
:2007930090FECCE054FCF07582002275820122AE82AF83EE4F70047582012243BA8090FE61
:2007B300C0E054FEF08E0F8F1090FED0E4F0A3F07515D37516FEF5178E188F190582F5F097
:2007D30012075690FED4E4F090FEDEF01582E0FF43078090FEDDEFF090FEC0E04480F07524
:2007F300820022AF82C007120733E582D00770047582012243BA808F82C007120740AE8254
:20081300D0078EF005F07403800225E0D5F0FBFE90FEB2E0FDEEF4520590FEB2EDF08F823B
:20083300C007120783E582D007600475820122E4F513F5148F82020868AF8285118285122E
:2008530083C0071207A2E582D0076004758201228F820207F6AF82C007120733E582D00732
:20087300700475820122C3E50F9513E51095145006850F13851014BF011C7515D67516FE6F
:2008930075170085131885141990FED575F0001207567582002275820122AF82C0071207DC
:2008B30033AE82D007EEFD70047582012290FEB1E0420590FEB1EDF0BF011290FECCE044A0
:2008D30001F090FEC0E04401F07582002275820122AF82C007120733AE82D007EEFD7004D4
:2008F3007582012290FEB1E0FEEDF4520690FEB1EEF0BF010990FECCE054FEF08004758298
:17091300012290FEB1E054556002800790FEC0E054FEF07582002270
:06000000020089020D4A16
:01000B0032C2
:03001300020D8F4C
:01001B0032B2
:0100230032AA
:01002B0032A2
:01003300329A
:01003B003292
:01004300328A
:01004B003282
:03005300020DD4C7
:03005B00020E1979
:01006300326A
:01006B003262
:01007300325A
:01007B003252
:03008300020E5E0C
:0300E20002008693
:03008600020EA3C4
:20092A00AE82AF83C3EE940AEF94004018902710C007C00612012FD006D007EE24F6FEEFE9
:20094A0034FFFF80DFEE4F60159003E8C007C00612012FD006D0071EBEFF011F80E72222AD
:20096A00750B01750C0075820102068D02096A751369751400758201120868758201020873
:20098A00AD7582011208E4750B00750C0175820102068DAD82AE83AFF0751523751600756F
:2009AA0017408D828E838FF0C007C006C00512022FAC82D005D006D007ECFB700302098B02
:2009CA00BB0111C007C006C005120979D005D006D007800FC007C006C00512098BD005D0AC
:2009EA0006D007852382852483C007C006C00512012FD005D006D007809F858216751501DD
:200A0A0090002575F04012017190002575F04002099D90002A75F0401201FC90002A75F05F
:200A2A004002099DE582FF24FA403FEF2F900A3B7380378008800F8016801D8024750D0232
:200A4A007582030206C6750D037582030206C6750D067582030206C6750D0775820302069C
:200A6A00C6750D007582030206C675820122120A2EE58270047F0180027F008F8222E58202
:200A8A00FF24FA4026EF2F900A9573801E8008800A800C800E8010758211227582222275D5
:200AAA00823322758251227582522275820022AF82BF02028003BF03047F0180027F008F1A
:200ACA008222758201120A78E582600475820122758202120A78E58260047582022275828D
:200AEA0003120A78E582600475820322758204120A78E582600475820422758205120A7867
:200B0A00E58260047582052275820022AF82AD2FAE30ED4E604E8F82C007C006C005120A76
:200B2A0078E582D005D006D0077003F58222C3740A9DE49E50067B0A7C0080048D038E04E1
:200B4A008B828C83C007C006C005C004C00312092AD003D004D005D006D007EDC39BFDEEF2
:200B6A009CFE80AE8F82020A78AF82752F287530008F82C007120B16E582D0077001228F01
:200B8A0082C007120A78E582D0076018C007120A1CD007752F607530008F82C007120B162E
:200BAA00D00780DB22AF82752F507530008F82C007120B16E582D0077003F522228F222245
:200BCA00AF82C007120A88AE82D007EEFD700122C007C005120976D0058D82120A04D007F2
:200BEA008F82C007120AB9E582D00760098F82120B73752200228F82C007120A78E582D09A
:200C0A000760058F82020BAF227582001205237582011205237582021205237582031205C8
:200C2A0023758204020523AF8285310B750C018F82C00712068DD007853109750A008F824B
:200C4A000205FD750B00750C0175820112068D750900750A017582011205FD12096A7509DA
:200C6A0001750A017582011205FD753102758203120C31753103758203120C3175310675D9
:200C8A008203120C31753107758203120C31753100758203020C3112011175119E751200D2
:200CAA0075820112084CE4F513F51475820112086802098B7508017582001204937508012B
:200CCA00758201120493750801758202120493750801758203120493750801758204120499
:200CEA0093120C137582001204EA7582011204EA7582021204EA7582031204EA7582040247
:200D0A0004EA752100752200120C4D120CA1120CBE02016B12098B12096A12016E120C135D
:200D2A00752100120ACCE582FF7002F522EF6004EFB5220612016B02072B75210102016B66
:200D4A00C020C0E0C0F0C082C083C007C006C005C004C003C002C001C000C0D075D000756E
:200D6A002101758200120523D0D0D000D001D002D003D004D005D006D007D083D082D0F075
:200D8A00D0E0D02032C020C0E0C0F0C082C083C007C006C005C004C003C002C001C000C0E6
:200DAA00D075D000752101758201120523D0D0D000D001D002D003D004D005D006D007D03F
:200DCA0083D082D0F0D0E0D02032C020C0E0C0F0C082C083C007C006C005C004C003C00252
:200DEA00C001C000C0D075D000752101758202120523D0D0D000D001D002D003D004D0053A
:200E0A00D006D007D083D082D0F0D0E0D02032C020C0E0C0F0C082C083C007C006C005C01D
:200E2A0004C003C002C001C000C0D075D000752101758203120523D0D0D000D001D002D01B
:200E4A0003D004D005D006D007D083D082D0F0D0E0D02032C020C0E0C0F0C082C083C0077C
:200E6A00C006C005C004C003C002C001C000C0D075D000752101758204120523D0D0D00002
:200E8A00D001D002D003D004D005D006D007D083D082D0F0D0E0D02032120D0CE5217003A1
:200EAA00120D1E90000A12092AE5226011E521700A852282120A78E5827003752200120ACA
:160ECA00CCAF82752100EF60D3EFB5220280CD8F82120BCA80C60A
:0600B800E478FFF6D8FD1C
:200096007900E94400601B7A00900F38780175A000E493F2A308B8000205A0D9F4DAF275C9
:0200B600A0FFA9
:1B0EE00020F71130F6138883A88220F509F6A8837583002280FEF280F5F02211
:1D0EFB00E5828515F0A4C582C0F08516F0A4D0F025F0C5838515F0A42583F5832292
:2000BE007800E84400600A790175A000E4F309D8FC7800E84400600C7900900001E4F0A340
:0400DE00D8FCD9FA77
:0D008900758131120F34E58260030200869C
:1C0F180020F71430F6148883A88220F507E6A88375830022E280F7E49322E022E8
:040F340075820022A0
:00000001FF
