:060000000208430209BFE3
:0F000B00020A6ED2917F327E00120BE1C2912267
:10001B00020AF8AD07ED6401707A90FECCE054FE55
:10002B00F0E054FBF090FEC8E054FCF0120430FFFB
:10003B0090FEC8E0548F4FF0900006120449FF90D9
:10004B00FECC30E00DE04401F090FEB1E04401F055
:10005B00800BE054FEF090FEB1E054FEF0EF90FE0A
:10006B00CC30E10DE04404F090FEB1E04402F080AE
:10007B000BE054FBF090FEB1E054FDF09000031246
:10008B0004A1E5F090FED5F09000031204A190FEC0
:10009B00D60203D8ED6402707A90FECCE054EFF0F8
:1000AB00E054BFF090FEC9E054FCF0120430FF9016
:1000BB00FEC9E0548F4FF0900006120449FF90FEEA
:1000CB00CC30E20DE04410F090FEB1E04404F0803F
:1000DB000BE054EFF090FEB1E054FBF0EF90FECC50
:1000EB0030E30DE04440F090FEB1E04408F0800BAB
:1000FB00E054BFF090FEB1E054F7F090000312040F
:10010B00A1E5F090FED7F09000031204A190FED869
:10011B000203D8ED6403707A90FECDE054FEF0E05C
:10012B0054FBF090FECAE054FCF0120430FF90FE3A
:10013B00CAE0548F4FF0900006120449FF90FECD99
:10014B0030E40DE04401F090FEB1E04410F0800B80
:10015B00E054FEF090FEB1E054EFF0EF90FECD30A6
:10016B00E50DE04404F090FEB1E04420F0800BE09C
:10017B0054FBF090FEB1E054DFF09000031204A1A9
:10018B00E5F090FED9F09000031204A190FEDA0284
:10019B0003D8ED6404707A90FECDE054EFF0E05498
:1001AB00BFF090FECBE054FCF0120430FF90FECB7E
:1001BB00E0548F4FF0900006120449FF90FECD30B3
:1001CB00E60DE04410F090FEB1E04440F0800BE00F
:1001DB0054EFF090FEB1E054BFF0EF90FECD30E75E
:1001EB000DE04440F090FEB1E04480F0800BE05411
:1001FB00BFF090FEB1E0547FF09000031204A1E534
:10020B00F090FEDBF09000031204A190FEDC0203E1
:10021B00D8ED6480704F90000512044990FEDEF01B
:10022B009000011204A1E5F090FED2F090000112B3
:10023B0004A190FED3F090000812044990FEDDB4A7
:10024B000106E04480F08004E0547FF09000071238
:10025B00044990FEC0B40106E04401F08004E05470
:10026B00FEF07F0022ED6405705690FEECE054FE2C
:10027B00F090FEE8E054FCF0120430FF90FEE8E052
:10028B00548F4FF090000612044990FEEC30E00DB5
:10029B00E04401F090FEB5E04401F0800BE054FE29
:1002AB00F090FEB5E054FEF09000031204A1E5F0CF
:1002BB0090FEF5F09000031204A190FEF60203D815
:1002CB00ED6406705690FEECE054EFF090FEE9E022
:1002DB0054FCF0120430FF90FEE9E0548F4FF09085
:1002EB00000612044990FEEC30E20DE04410F09051
:1002FB00FEB5E04404F0800BE054EFF090FEB5E067
:10030B0054FBF09000031204A1E5F090FEF7F0907F
:10031B0000031204A190FEF80203D8ED6407705598
:10032B0090FEEDE054FEF090FEEAE054FCF0120477
:10033B0030FF90FEEAE0548F4FF090000612044914
:10034B0090FEED30E40DE04401F090FEB5E044107A
:10035B00F0800BE054FEF090FEB5E054EFF090000F
:10036B00031204A1E5F090FEF9F09000031204A132
:10037B0090FEFA8058ED6408705790FEEDE054EF54
:10038B00F090FEEBE054FCF0120430FF90FEEBE03B
:10039B00548F4FF090000612044990FEED30E60D9D
:1003AB00E04410F090FEB5E04440F0800BE054EFD9
:1003BB00F090FEB5E054BFF09000031204A1E5F0FD
:1003CB0090FEFBF09000031204A190FEFCF07F0066
:1003DB0022ED6481704C90000512044990FEFEF0F2
:1003EB009000011204A1FDACF0EC90FEF2F0AF0511
:1003FB00A3EFF090000812044990FEFDB40106E053
:10040B004480F08004E0547FF09000071204499080
:10041B00FEE0B40106E04401F08004E054FEF07FFE
:10042B0000227FFF22BB010689828A83E0225002D1
:10043B00E722BBFE02E32289828A83E49322BB017B
:10044B000CE58229F582E5833AF583E0225006E933
:10045B002582F8E622BBFE06E92582F8E222E58238
:10046B0029F582E5833AF583E49322BB010A89825D
:10047B008A83E0F5F0A3E022500687F009E7192202
:10048B00BBFE07E3F5F009E3192289828A83E49323
:10049B00F5F074019322BB0110E58229F582E58307
:1004AB003AF583E0F5F0A3E0225009E92582F886BE
:1004BB00F008E622BBFE0AE92582F8E2F5F008E235
:1004CB0022E5832AF583E993F5F0A3E99322E88FDC
:1004DB00F0A4CC8BF0A42CFCE98EF0A42CFC8AF0BD
:1004EB00EDA42CFCEA8EF0A4CDA8F08BF0A42DCCBF
:1004FB003825F0FDE98FF0A42CCD35F0FCEB8EF018
:10050B00A4FEA9F0EB8FF0A4CFC5F02ECD39FEE4FD
:10051B003CFCEAA42DCE35F0FDE43CFC2275F00842
:10052B00758200EF2FFFEE33FECD33CDCC33CCC530
:10053B008233C5829BED9AEC99E58298400CF5824B
:10054B00EE9BFEED9AFDEC99FC0FD5F0D6E4CEFBBD
:10055B00E4CDFAE4CCF9A88222B800C1B90059BAAB
:10056B00002DEC8BF084CFCECDFCE5F0CBF97818D9
:10057B00EF2FFFEE33FEED33FDEC33FCEB33FB10D3
:10058B00D703994004EB99FB0FD8E5E4F9FA2278ED
:10059B0018EF2FFFEE33FEED33FDEC33FCC933C9FF
:1005AB0010D7059BE99A4007EC9BFCE99AF90FD809
:1005BB00E0E4C9FAE4CCFB2275F010EF2FFFEE3329
:1005CB00FEED33FDCC33CCC833C810D7079BEC9A68
:1005DB00E899400AED9BFDEC9AFCE899F80FD5F0F1
:1005EB00DAE4CDFBE4CCFAE4C8F922EB9FF5F0EAB0
:1005FB009E42F0E99D42F0E89C45F022ECF208EDBA
:10060B00F208EEF208EFF222D083D082E493F208E4
:10061B00740193F208740293F208740393F2740456
:10062B0073E4788FF27821E2700218E27002C32231
:10063B007802E2640160F97820E2FC08E2FDD394D1
:10064B004CEC940450030206DCED9440EC94064011
:10065B00030206DCE4FFE4FE788FE204F2E225E01D
:10066B002420F8E2FC08E2FDD39461EC9400401FD7
:10067B00ED947FEC9400501774172FF8C000E2FD37
:10068B00A8067401088002C333D8FCF45D8031786E
:10069B008FE225E02420F8E2FC08E2FDD394C8ECBD
:1006AB0094004034ED94FAEC9400502C74172FF80E
:1006BB00C000E2FDA8067401088002C333D8FC4DCC
:1006CB00D000F20EEE6408708F0FEF640470878019
:1006DB000FE4FF0FEFB420FBE47820F208F2C32203
:1006EB00E47820F208F2D322811C00818E008284F0
:1006FB00000082030000821D0000C1008F05010273
:10070B000305090F14191E28323C46505A81160F47
:10071B00810008811B008101008286000082880312
:10072B0084828C0E1081020082140000828A0000E9
:10073B00A06420000000000000000000000000008A
:10074B00000000000000000000000000000000009E
:10075B00000000000000000000000000000000008E
:10076B00000000000000000000000000000000007E
:10077B00000000000000000000000000000000006E
:10078B00000000000000000000000000000000005E
:10079B0000000000000000811F0084170000000013
:1007AB000043BA80120BC97DD07C077F011208CFA2
:1007BB0090FEB1E054FEF0C290120C0C120BF9D269
:1007CB0088D2A8D2AF0000000000E4781CF2C2006F
:1007DB00C291120A2112062C50F87817E2B401F2DA
:1007EB0012000E7819E2B41108120C1F3000E380CE
:1007FB00147819E2B42205120B7A80097819E2B445
:10080B003312120B977800E22405F8E2FD7F0112F8
:10081B00095580BE7819E2FDB4510C7888E2FE08C8
:10082B00E2FF120B5B80ABED645270A6788CE2FE9C
:10083B0008E2FF120B5B809A787FE4F6D8FD758196
:10084B002002088A0207ACE493A3F8E493A34003C5
:10085B00F68001F208DFF48029E493A3F85407240F
:10086B000CC8C333C4540F4420C8834004F45680CF
:10087B000146F6DFE4800B01020408102040809053
:10088B0006F3E47E019360BCA3FF543F30E50954AB
:10089B001FFEE493A360010ECF54C025E060A84077
:1008AB00B8E493A3FAE493A3F8E493A3C8C582C86E
:1008BB00CAC583CAF0A3C8C582C8CAC583CADFE943
:1008CB00DEE780BE788FEFF290FEB2E054FCF0AE24
:1008DB0004AF05AB07AA06E4F9F8FF7E1B7DB7FC56
:1008EB00120AB47899120607E47FFF7EFFFDFC78AD
:1008FB0099E2FB08E2F908E2FA08E2CBF8D3120519
:10090B00F6400978991206130000FFFF7890746087
:10091B00F278990808E2FE08E224FF7892F2EE34AE
:10092B00FF18F2E47893F208F208F20804F208F2E6
:10093B0008F2788FE2FF7BFE7A00799012001E7B23
:10094B00FE7A0079907F8002001E788FEFF2AB0564
:10095B000812061300001770AF03E4FCFDFE78903D
:10096B00E2FB08E2F908E2FA08E2CBF81204D9E458
:10097B007B64FAF9F81205647894EEF208EFF2E46E
:10098B00FCFD7890E2FB08E2F908E2FA08E2CBF80A
:10099B00C31205F6500E78900808E2FF08E208CF64
:1009AB00F208EFF27894E2FC08E2FDEC90FED5F051
:1009BB00A3EDF022C0E0C0D075D000C000C005C0D0
:1009CB0006C007781DE4F208F27802E2FF700B789C
:1009DB008AF208F2780204F2802FEFB4012B781F11
:1009EB00E2C394325018788AE2FE08E2FF781FE2E5
:1009FB00FD04F2ED25E02420F8EEF208EFF2788A00
:100A0B00E4F208F27814F208F2D007D006D005D041
:100A1B0000D0D0D0E03220000CC3781EE2940A182C
:100A2B00E29400503D30003A781BE2640170337859
:100A3B0001E2701A04F2C20090FEB1E054FEF0C263
:100A4B00907F647E00120BE1D200E04401F07886C7
:100A5B00E2FE08E2FFC37804E29F18E29E40031215
:100A6B000B3A22C0E0C0D075D000C000788BE224D6
:100A7B0001F218E23400F27802E2B401257815E2B3
:100A8B002401F218E23400F2D308E294F818E2944D
:100A9B002A400FE4F208F27802F2788AF208F27830
:100AAB001FF2D000D0D0D0E032C2D5E830E70FB281
:100ABB00D5E4C39BFBE49AFAE499F9E498F8EC309B
:100ACB00E717B2D5120AEA120564E4C39BFBE49A5A
:100ADB00FAE499F9E498F8800312056430D50DE433
:100AEB00C39FFFE49EFEE49DFDE49CFC22C0E0C09E
:100AFB00D075D000C0007885E22401F218E23400F2
:100B0B00F2C308E2941418E2940040117804E22432
:100B1B0001F218E23400F27884E4F208F2781EE273
:100B2B002401F218E23400F2D000D0D0D0E032C26F
:100B3B000090FEB1E054FEF0C290C290E4F5B275A5
:100B4B00B1FBF5927591FF7F32FE120BE1020C297E
:100B5B0030001B781B7401F2E47801F27886EEF218
:100B6B0008EFF2E47884F208F27803F208F222300C
:100B7B0000197816E214FF7800E2C39F5003E204D9
:100B8B00F27800E22405F8E2788EF2223000157834
:100B9B0000E2D394004003E214F27800E22405F85B
:100BAB00E2788EF222120BC990FEB1E04401F0E420
:100BBB00781BF27801F27886F208F2D20022E4F583
:100BCB0091F592F5B1F5B2F5C9F5CAF5B275B1FB70
:100BDB00759203F59122EF4E60137508107509930A
:100BEB00D509FDD508FAEF1F70EC1E80E922538E54
:100BFB003F758900758BB0758D3CC28FD28ED2AB91
:100C0B0022538E7F5389F0758AF6758CFFC28DD275
:100C1B008CD2A922200003020BB0120B3A2243877D
:070C2B00020000000000229E
:00000001FF
