:1000000002022502005EC290C29122020339B29020
:10001000B2912202038EC100420005000042000797
:100020000000420002000042000000004100040005
:1000300041000A004100090100E4F591F592F5B193
:0C004000F5B2F5C9F5CA759203F59122DE
:030053000203AEF7
:10005B000203CEC0E0C083C0829000047401F09014
:10006B000000E4F0A3F090000A7411F0D082D0836A
:03007B00D0E032A0
:100083000203EEAB05AA079000077402F0A374B451
:10009300F0D200E4900005F0A3F0900007E0FEA387
:1000A300E0FFC3900006E09F900005E09E40EBE474
:1000B300900007F0A3F0C200900005F0A3F0A304A2
:1000C300F0A3745AF0C200E4900005F0A3F090008E
:1000D30007E0FEA3E0FFC3900006E09F900005E069
:1000E3009E40EBE4900007F0A3F0C200900005F0FF
:1000F300A3F0AF021202B1EAF4FF1202B1AF03128E
:1001030002B1EBF4FF1202B1900007E4F0A3742BE9
:10011300F0D200E4900005F0A3F0900007E0FEA306
:10012300E0FFC3900006E09F900005E09E40EBE4F3
:10013300900007F0A3F0C200900005F0A3F0A3F035
:10014300A3742BF0C200E4900005F0A3F090000725
:10015300E0FEA3E0FFC3900006E09F900005E09E51
:1001630040EBE4900007F0A3F0C200900005F0A379
:10017300F0020006E4F943BA8012003912040ED2E9
:1001830088D2A8D28AD2AA758F10438F20438F407A
:10019300D2AF0000000000C290C29143870200006A
:1001A300000000900004E0605CB40104A2B2802669
:1001B300900004E0FFB40204A2B3801AEFB4030476
:1001C300A2B68012900004E0FFB40404A2B7800634
:1001D300EFB40505A2B0E433F9E97029C390000137
:1001E300E094F4900000E09401401A900009E0FFCD
:1001F300A3E0FD120086E4900004F0900000F0A359
:10020300F0A3F0A3F0C3900003E09430900002E069
:100213009475408FE4F0A3F04387020000000000D0
:100223008081787FE4F6D8FD75812002026C02019B
:1002330077E493A3F8E493A34003F68001F208DF85
:10024300F48029E493A3F85407240CC8C333C4549B
:100253000F4420C8834004F456800146F6DFE4804F
:100263000B0102040810204080900016E47E0193E5
:1002730060BCA3FF543F30E509541FFEE493A36021
:10028300010ECF54C025E060A840B8E493A3FAE47C
:1002930093A3F8E493A3C8C582C8CAC583CAF0A3CD
:1002A300C8C582C8CAC583CADFE9DEE780BEE4FEEB
:1002B300900007E4F0A3742BF0D200E4900005F063
:1002C300A3F0900007E0FCA3E0FDC3900006E09DCF
:1002D300900005E09C40EBE4900007F0A3F0C2001F
:1002E300900005F0A3F0EF30E009A3E4F0A37482DB
:1002F300F08009900007E4F0A3742BF0C200E490AF
:100303000005F0A3F0900007E0FCA3E0FDC390001C
:1003130006E09D900005E09C40EBE4900007F0A30D
:10032300F0C200900005F0A3F0EF13FF0EEE640897
:1003330060030202B322C0E0C083C082C0D0900039
:1003430003E004F07006900002E004F0900001E086
:1003530004F07006900000E004F0D3900008E094ED
:1003630000900007E094004019900006E004F0704C
:1003730006900005E004F030000512000E80031221
:100383000006D0D0D082D083D0E032C0E0C083C09A
:10039300829000047402F0900000E4F0A3F0900057
:1003A3000A7422F0D082D083D0E032C0E0C083C090
:1003B300829000047403F0900000E4F0A3F0900036
:1003C3000A7433F0D082D083D0E032C0E0C083C05F
:1003D300829000047404F0900000E4F0A3F0900015
:1003E3000A7451F0D082D083D0E032C0E0C083C021
:1003F300829000047405F0900000E4F0A3F09000F4
:100403000A7452F0D082D083D0E032438E80E4F578
:0E04130089758A64758CFFC28DD28CD2A922A5
:00000001FF
